:020000040800F2
:1000000000060020E1020008E3020008E302000805
:10001000E3020008E3020008E3020008E30200082C
:10002000E3020008E3020008E302000805280008D4
:10003000E3020008E3020008E3020008E30200080C
:10004000E3020008E3020008E3020008E3020008FC
:10005000E3020008E3020008453D0008713D000886
:100060009D3D0008C93D0008F53D00080D10000841
:1000700035100008611000088D100008B910000844
:10008000E11000080D110008E3020008E302000877
:10009000E3020008E3020008E3020008213E000832
:1000A000E3020008E3020008E3020008E30200089C
:1000B000E3020008E3020008E3020008E30200088C
:1000C000E3020008E3020008E3020008E30200087C
:1000D000E3020008E3020008E3020008E30200086C
:1000E000853E0008E3020008E3020008E30200087E
:1000F000E3020008E3020008E302000839110008E7
:10010000E3020008E3020008F93E0008E3020008E9
:10011000E3020008E3020008E3020008E30200082B
:10012000651100088D110008B9110008E5110008DB
:1001300011120008E3020008E3020008E3020008CD
:10014000E3020008E3020008E3020008E3020008FB
:10015000391200086512000891120008E302000835
:10016000E3020008E3020008E3020008E3020008DB
:10017000E3020008D9330008E3020008E3020008A4
:10018000E3020008E3020008E3020008E3020008BB
:10019000E3020008E3020008E3020008E3020008AB
:1001A000E3020008E3020008E3020008E30200089B
:1001B000E3020008E3020008E3020008E30200088B
:1001C000E3020008E3020008E3020008E30200087B
:1001D000E3020008C5330008E3020008E302000858
:1001E000E3020008E3020008E3020008E30200085B
:1001F000E3020008E3020008E3020008E30200084B
:10020000E3020008E3020008E3020008E30200083A
:10021000E3020008E3020008E3020008E30200082A
:10022000E3020008E3020008E3020008E30200081A
:10023000E3020008E3020008E3020008E30200080A
:10024000E3020008E3020008E3020008E3020008FA
:10025000E3020008E3020008E3020008E3020008EA
:10026000E3020008E3020008E3020008E3020008DA
:10027000E3020008E3020008E3020008E3020008CA
:10028000E3020008E3020008E3020008E3020008BA
:10029000E3020008E3020008E3020008E3020008AA
:1002A000E3020008E3020008E3020008E30200089A
:1002B000E3020008E3020008E3020008E30200088A
:1002C000E3020008E3020008E3020008E30200087A
:1002D000E3020008E3020008E3020008E30200086A
:1002E00002E000F000F8FEE772B6374880F30888B5
:1002F000364880F3098836483649086040F20000E5
:10030000CCF200004EF63471CEF200010860BFF36B
:100310004F8FBFF36F8F40F20000C0F2F0004EF637
:100320008851CEF200010860BFF34F8FBFF36F8F8B
:100330004FF00000E1EE100A4EF63C71CEF20001E3
:100340000860062080F31488BFF36F8F02F0BCFAB8
:1003500003F0B6FA4FF055301F491B4A91423CBF9B
:1003600041F8040BFAE71D49184A91423CBF41F895
:10037000040BFAE71A491B4A1B4B9A423EBF51F83D
:10038000040B42F8040BF8E700201849184A914280
:100390003CBF41F8040BFAE702F0D4FA03F012FB79
:1003A000144C154DAC4203DA54F8041B8847F9E7A6
:1003B00000F042F8114C124DAC4203DA54F8041B21
:1003C0008847F9E702F0BCBA0006002000220020AE
:1003D0000000000808ED00E00000002000060020FA
:1003E000D0430008002200205C2200206022002070
:1003F000C0430020E0020008E0020008E00200081C
:10040000E00200082DE9F04F2DED108AC1F80CD064
:10041000D0F80CD0BDEC108ABDE8F08F002383F338
:1004200011882846A047002001F070FDFEE701F08A
:10043000FFFC00DFFEE7000038B500F01BFC00F019
:1004400079FD02F09FF9054602F0D2F90446C0B9E1
:100450000E4B9D4218D001339D4241F2883512BFA8
:10046000044600250124002002F096F90CB100F0AA
:1004700075F800F033FD284600F01EF900F06EF824
:10048000F9E700250124EEE70546ECE7010007B097
:1004900008B500F0C3FBA0F120035842584108BD45
:1004A00007B541F21203022101A8ADF8043000F0B3
:1004B000D1FB03B05DF804FB38B5302383F311881A
:1004C000174803680BB101F0EDFD0023154A4FF406
:1004D0007A71134801F0DCFD002383F31188124C7C
:1004E000236813B12368013B2360636813B1636819
:1004F000013B63600D4D2B7833B963687BB90220F3
:1005000000F064FC322363602B78032B07D163680F
:100510002BB9022000F05AFC4FF47A73636038BDA7
:1005200070230020B9040008642300206C230020FD
:10053000084B187003280CD8DFE800F00805020803
:10054000022000F041BC022000F03CBC024B002223
:100550005A6070476C23002064230020F8B5504B8C
:10056000504A1C461968013100F0998004339342C7
:10057000F8D162684C4B9A4240F291804B4B9B6899
:1005800003F1006303F5C0239A4280F088800020C5
:1005900000F08AFB0220FFF7CBFF454B0021D3F888
:1005A000E820C3F8E810D3F81021C3F81011D3F8ED
:1005B0001021D3F8EC20C3F8EC10D3F81421C3F8C1
:1005C0001411D3F81421D3F8F020C3F8F010D3F8A5
:1005D0001821C3F81811D3F81821D3F8802042F05D
:1005E0000062C3F88020D3F8802022F00062C3F8B4
:1005F0008020D3F88020D3F8802042F00072C3F826
:100600008020D3F8802022F00072C3F88020D3F835
:10061000803072B64FF0E023C3F8084DD4E90004EF
:10062000BFF34F8FBFF36F8F224AC2F88410BFF31E
:100630004F8F536923F480335361BFF34F8FD2F848
:10064000803043F6E076C3F3C905C3F34E335B0154
:1006500003EA060C29464CEA81770139C2F8747224
:10066000F9D2203B13F1200FF2D1BFF34F8FBFF32C
:100670006F8FBFF34F8FBFF36F8F536923F4003336
:1006800053610023C2F85032BFF34F8FBFF36F8F17
:10069000302383F31188854680F308882047F8BD0E
:1006A0000000060820000608FFFF050800220020C1
:1006B0000044025800ED00E02DE9F04F95B0DFF85E
:1006C000DCB22022FF2101900CA8DBF8086000F0CA
:1006D000AFFBAD4A1378A3B90121AC481170036098
:1006E000302383F3118803680BB101F0DBFC002396
:1006F000A74A4FF47A71A54801F0CAFC002383F39E
:100700001188019B13B1A34B019A1A60A24A137876
:10071000032B03D0002313709E4A53604FF000094F
:10072000019DCA464C46C846012000F04DFB25B14C
:10073000984B1B68002B00F01982002000F06EFA25
:100740000590059B002BF2DB012000F03BFB059B95
:10075000213B1F2BE8D801A252F823F0DD07000847
:10076000050800089708000829070008290700085D
:10077000290700081D090008DD0A0008F70900081C
:10078000590A0008810A0008A70A0008290700087A
:10079000B90A0008290700082B0B00087B0800088D
:1007A00029070008730B0008E90700087B08000808
:1007B00029070008590A0008290700082907000826
:1007C0002907000829070008290700082907000849
:1007D0002907000829070008970800080220FFF7EA
:1007E00057FE002840F00581019BB9F1000F08BFBA
:1007F0001D4641F21233022107A8ADF81C3000F06B
:1008000029FA91E74FF47A7000F008FA071EEBDB43
:100810000220FFF73DFE0028E6D0013F052F00F241
:10082000D081DFE807F0030A0D10133505230421FA
:1008300007A8079300F00EFA17E004215748F9E7DC
:1008400004215748F6E704215648F3E74FF01C0807
:10085000404608F1040800F029FA0421079007A88F
:1008600000F0F8F9B8F12C0FF2D101234FF0000895
:10087000BB404AEA03035FFA83FA00F025FB24B188
:100880000AF00B030B2B08BF0025FFF709FE4BE70F
:1008900004214548CEE7002CA6D00AF00B030B2B11
:1008A0005ED10220FFF7F4FD0446002858D0012055
:1008B000002700F0F9F90220FFF73AFE1FFA87F946
:1008C000484600F001FA054688B9334B01222E460E
:1008D00002201A7000F076FADBF80830B34216D81E
:1008E00000262D4BA1461E702A4B5E60C5E7059978
:1008F00048460137A1F140025142514100F0F4F95C
:1009000005460028DAD1A14641F2121373E73046BA
:1009100000F0CCF90130F6D10436DDE7002C3FF4CD
:1009200063AF0AF00B030B2B1AD10220FFF700FE76
:10093000322000F073F9071E12DB17F003030FD10A
:10094000BA19DBF808108A420AD8B7F5807F07D8B1
:10095000164A9F4206DCC820FFF79AFD044638BBC2
:10096000012441E74FF47A70CDE9023200F056F9E4
:10097000059005990029FFF637AF0599039A029B68
:1009800002F8011B0133E4E76023002070230020FC
:10099000B9040008642300206C23002000220020FA
:1009A00004220020082200200C22002060220020C7
:1009B0001F2E11D8C6F120020CAB26F0030082498D
:1009C000BA42184428BF3A46029200F011FA029A3D
:1009D000FF217D4800F02CFABB10C7F387027A494B
:1009E0003046029300F02CFA00288DD0029B06EBD3
:1009F0008306044641E70220FFF74AFD00283FF442
:100A0000F3AE00F08FF900283FF4EEAE00273B462E
:100A100012E01F2F1AD80C9A013217D027F00302C8
:100A200050326A4452F8200C07900422184607A955
:100A300000F0D6FA04370346DBF80820BA42E8D8BB
:100A40000793042107A800F005F916E7384602933A
:100A500000F02CF9029BE7E70023642106A8069327
:100A600000F0F0F800287FF4BFAE0220FFF710FD81
:100A700000283FF4B9AE069800F04AF90790E0E785
:100A80000023642106A8069300F0DCF800287FF418
:100A9000ABAE0220FFF7FCFC00283FF4A5AE0698A1
:100AA00000F038F9EAE70220FFF7F2FC00283FF4F3
:100AB0009BAE00F047F9E1E70220FFF7E9FC0028D0
:100AC0003FF492AE07A9142000F042F90746042132
:100AD000069006A800F0BEF83946B3E7322000F0D1
:100AE0009DF8071EFFF680AEBB077FF47DAE07EBD7
:100AF0000803DBF8082093423FF676AE0220FFF7AA
:100B0000C7FC00283FF470AE27F003074744B84500
:100B10003FF4B3AE404608F1040800F0C7F80421E2
:100B2000079007A800F096F8F1E74FF47A70FFF706
:100B3000AFFC00283FF458AE00F0F4F800283FF472
:100B4000E3AE0C9B01330CD008220CA9002000F06E
:100B500077F900283FF4D8AE2022FF210CA800F03E
:100B600067F9FFF79DFC194801F0D6F915B0BDE80B
:100B7000F08F002C3FF438AE0AF00B030B2B7FF400
:100B800033AE0023642107A8079300F05BF8074603
:100B900000287FF429AE0220FFF77AFC029000289B
:100BA0003FF422AEFFF77CFC41F2883001F0B4F94B
:100BB000079800F0BDF93D4600F086F9029B1C46FF
:100BC000B2E54FF000080FE660220020A086010089
:100BD0000F4B70B51B7805460C460133DBB2012B79
:100BE00010D80C484FF47A730168A2FB03322246F6
:100BF0000E6A2946B047844204D1074B00220120E7
:100C00001A7070BD4FF4FA7001F086F90020F8E711
:100C10001022002040290020B8230020002307B51F
:100C2000024601210DF107008DF80730FFF7D0FFD4
:100C300020B19DF8070003B05DF804FB4FF0FF30D2
:100C4000F9E700000A46042108B5FFF7C1FF0138A3
:100C500008BD000030B4054604480A46036829462A
:100C6000DC69034BA44630BC604700BF402900202C
:100C7000A086010070B50A4E00250A4C01F062FC06
:100C8000308020683388834208D901F057FC2368FC
:100C900005440133B5F5C02F2360F2D370BD00BF0A
:100CA000B0230020B423002001F022BD00F1006039
:100CB00000F5C0200068704700F10060920000F568
:100CC000C02001F09DBC0000054B1A68054B1B8835
:100CD0009B1A834202D9104401F030BC00207047B7
:100CE000B4230020B023002038B5084D04462868FE
:100CF00029B128682044BDE8384001F039BC2044BF
:100D000001F022FC0028F4D038BD00BFB42300203D
:100D10000020704700F1FF5000F58F10D0F8000858
:100D200070470000064991F8243033B100230822AF
:100D3000086A81F82430FFF7BFBF0120704700BF69
:100D400088230020014B1868704700BF0010005C2A
:100D5000194B1A4A70B51D68431E0420C5F30B04D5
:100D60000B442D0C013808D19942084610D30524B4
:100D7000134A013C15D1401A70BD1688A6420ED107
:100D800052680846013A9842F1D212F9014F1CB953
:100D90002C2200F8012BEAE700F8014BF3E70832B8
:100DA000E0E71688AE4204D198423CBF967800F83E
:100DB000016B0432DDE700BF0010005C142200204C
:100DC000C43F0008704700007047000070470000F3
:100DD00070B504464FF47A7604B970BD412C2546AF
:100DE00028BF412506FB05F0641B01F095F8F3E7E9
:100DF000002310B5934200D110BDCC5CC454013324
:100E0000F8E70000013810B510F9013F3BB191F946
:100E100000409C4203D11AB10131013AF4E71AB102
:100E200091F90020981A10BD1046FCE7FFF7FEBFAD
:100E300002440346934200D1704703F8011BF9E7CF
:100E40002DE9F8431F4D14460746884695F824209F
:100E500022B9DFF870906CB9012009E02B6A03EB2E
:100E600082038342F5D0FFF75DFF0028F1D1002017
:100E7000BDE8F88395F824302BB92022FF2148469D
:100E80002F62FFF7D5FF95F824004146C0F1080214
:100E900005EB8000A24228BF2246D6B29200FFF79F
:100EA000A7FF95F82430A41B17441E449044E4B2D5
:100EB000F6B2082E85F82460CDD1FFF733FF002865
:100EC000C9D1D4E788230020024B1A78024B1A704C
:100ED000704700BFB82300201022002038B5114D04
:100EE000114C284600F06CFB2146284600F094FB8C
:100EF00024684FF47A70D4F89020D2F8043843F084
:100F00000203C2F80438FFF763FF0849204600F0E7
:100F100091FCD4F89020D2F8043823F00203C2F8F0
:100F2000043838BD4029002090410008984100084D
:100F300070470000F0B5A1B071B600230120002475
:100F4000802619461A4600F049FA4FF4D065214927
:100F50003D270B6923BBD1F810310BBB036804F1AB
:100F600000629A600368C3F80CD003685E6003688F
:100F70001D600268136843F0010313600268136880
:100F800023F01E03136003681A68D207FCD4037BA6
:100F90008034426807FA03F3B4F5001F1360D8D118
:100FA00000F05CFAB4F5001F0BD000240A4D0B4E84
:100FB000012001F09DFB2B88A34205D8002001F001
:100FC00097FB61B621B0F0BD30682044013401F0D8
:100FD000CFFAF0E700200052B0230020B423002015
:100FE00030B50A44084D914200D130BD11F8013BA3
:100FF0005840082340F30004013B2C4013F0FF034A
:1010000084EA5000F6D1EEE72083B8ED08B5074B2F
:10101000074A196801F03D01996053680BB1906867
:101020009847BDE8084001F025BC00BF0000024021
:10103000BC23002008B5084B1968890901F03D015F
:101040008A019A60054AD3680BB110699847BDE8D8
:10105000084001F00FBC00BF00000240BC2300208C
:1010600008B5084B1968090C01F03D010A049A60A3
:10107000054A53690BB190699847BDE8084001F0F3
:10108000F9BB00BF00000240BC23002008B5084B9C
:101090001968890D01F03D018A059A60054AD369F6
:1010A0000BB1106A9847BDE8084001F0E3BB00BFF0
:1010B00000000240BC23002008B5074B074A5968CE
:1010C00001F03D01D960536A0BB1906A9847BDE8C1
:1010D000084001F0CFBB00BF00000240BC2300204D
:1010E00008B5084B5968890901F03D018A01DA60A9
:1010F000054AD36A0BB1106B9847BDE8084001F070
:10110000B9BB00BF00000240BC23002008B5084B5B
:101110005968090C01F03D010A04DA60054A536B75
:101120000BB1906B9847BDE8084001F0A3BB00BF2E
:1011300000000240BC23002008B5084B5968890D07
:1011400001F03D018A05DA60054AD36B0BB1106CE2
:101150009847BDE8084001F08DBB00BF0000024089
:10116000BC23002008B5074B074A196801F03D0170
:101170009960536C0BB1906C9847BDE8084001F042
:1011800079BB00BF00040240BC23002008B5084B17
:101190001968890901F03D018A019A60054AD36CFA
:1011A0000BB1106D9847BDE8084001F063BB00BF6C
:1011B00000040240BC23002008B5084B1968090C44
:1011C00001F03D010A049A60054A536D0BB1906D20
:1011D0009847BDE8084001F04DBB00BF0004024045
:1011E000BC23002008B5084B1968890D01F03D01AA
:1011F0008A059A60054AD36D0BB1106E9847BDE819
:10120000084001F037BB00BF00040240BC230020AF
:1012100008B5074B074A596801F03D01D960536E84
:101220000BB1906E9847BDE8084001F023BB00BFAA
:1012300000040240BC23002008B5084B5968890906
:1012400001F03D018A01DA60054AD36E0BB1106FDF
:101250009847BDE8084001F00DBB00BF0004024004
:10126000BC23002008B5084B5968090C01F03D016A
:101270000A04DA60054A536F0BB1906F9847BDE8D6
:10128000084001F0F7BA00BF00040240BC23002070
:1012900008B5084B5968890D01F03D018A05DA60EF
:1012A000054AD36F13B1D2F880009847BDE80840D3
:1012B00001F0E0BA00040240BC23002000230C4AE5
:1012C00010B519460B4C42F8043B54F8230001605A
:1012D00042F813100433402BF7D1074A4FF0FF3385
:1012E0009360D360C2F80834C2F80C3410BD00BF5C
:1012F000BC230020504000080000024011282DE9C6
:10130000F041884611D004D8102810D10F240020B5
:1013100003E0122807D10F2407202D4F4FF0010CB6
:101320003D68A04205D900204DE00724EFE70446C0
:10133000F3E70CFA00F6354247D107EBC00435431A
:10134000C4E90123F3B23D6073B1224BD3F8D84016
:1013500044F00104C3F8D840D3F8004144F001043C
:10136000C3F80041D3F8003116F47F4F0ED0194B6B
:10137000D3F8D84044F00204C3F8D840D3F8004171
:1013800044F00204C3F80041D3F800310501124CC7
:101390006359186820F01F001860186810F00100E9
:1013A000FBD166194FF03D0C96F80CE071680CFA11
:1013B0000EF70F601860212058611AB14146B07BCA
:1013C00000F056F86019BDE8F0810130A9E700BFD0
:1013D000BC230020004402585040000810B53024BF
:1013E00084F31188FFF78AFF002383F3118810BD6F
:1013F00010B50446807B00F051F81649637B01224A
:101400009A400B6823EA0203DAB20B6072B9124AFF
:10141000D2F8D81021F00101C2F8D810D2F800118A
:1014200021F00101C2F80011D2F8002113F47F4F1E
:101430000ED1094BD3F8D82022F00202C3F8D820ED
:10144000D3F8002122F00202C3F80021D3F80031C2
:1014500010BD00BFBC2300200044025808B5302353
:1014600083F31188FFF7C4FF002383F3118808BDBD
:10147000090100F16043012203F56143C9B283F819
:10148000001300F01F039A4043099B0003F16043DF
:1014900003F56143C3F880211A60704700F01F0311
:1014A00001229A40430900F160409B0000F5614031
:1014B00003F1604303F56143C3F88020C3F8802142
:1014C000002380F800337047026843680A430260D3
:1014D00003B118477047000013B5406B00F5805406
:1014E000D4F8A4381A681178042914D1017C02298F
:1014F00011D11979012312898B4013420BD101A913
:101500004C3002F095F8D4F8A4480246019B2179AA
:10151000206800F0DFF902B010BD0000143002F0C6
:101520001DB800004FF0FF33143002F017B8000070
:101530004C3002F0E9B800004FF0FF334C3002F0BD
:10154000E3B80000143001F0EBBF00004FF0FF31B2
:10155000143001F0E5BF00004C3002F0B5B80000D7
:101560004FF0FF324C3002F0AFB80000002070475F
:1015700010B500F58054D4F8A4381A6811780429FD
:1015800017D1017C022914D15979012352898B404A
:1015900013420ED1143001F07DFF024648B1D4F859
:1015A000A4084FF4407341790068BDE8104000F092
:1015B0007FB910BD406BFFF7DBBF00007047000034
:1015C0007FB5124B012504260446036000230574F1
:1015D00000F1840243602946C0E902330C4B0290BB
:1015E000143001934FF44073009601F02FFF094B24
:1015F00004F69442294604F14C000294CDE90063BC
:101600004FF4407301F0F0FF04B070BD504100088A
:10161000B5150008D91400080A68302383F311882F
:101620000B790B3342F823004B79133342F8230034
:101630008B7913B10B3342F8230000F58053C3F8C4
:10164000A41802230374002080F31188704700005F
:1016500038B5037F044613B190F85430ABB9012577
:10166000201D0221FFF730FF04F114006FF001018B
:10167000257700F079FC04F14C0084F854506FF0A9
:101680000101BDE8384000F06FBC38BD10B5012144
:1016900004460430FFF718FF0023237784F8543002
:1016A00010BD000038B504460025143001F0E6FEF8
:1016B00004F14C00257701F0AFFF201D84F8545051
:1016C0000121FFF701FF2046BDE83840FFF750BF7A
:1016D00090F88020034602F06002202A14D190F88E
:1016E00081200020212A02D81F2A03D87047222AED
:1016F00007D07047054A5A6707229A67D8670120C2
:101700007047C3E91D00F9E7002070472C22002034
:1017100037B500F58055D5F8A4381A681178042932
:101720001AD1017C022917D11979012312898B4022
:10173000134211D100F14C04204602F02BF858B1AD
:1017400001A9204601F074FFD5F8A4480246019B88
:101750002179206800F0BEF803B030BD01F10B0321
:10176000F7B550F8236004460D46F6B1302383F3F5
:10177000118804EB8507301D08214C36FFF7A4FEC5
:10178000FB685B691B6813B1304601F05FFF01A97C
:10179000304601F04DFF024648B1019B29462046E4
:1017A00000F098F8002383F3118803B0F0BDFB68C4
:1017B0005A691268002AF5D01B8A013B1340F1D107
:1017C00004F18002EAE70000133138B550F82140F7
:1017D000ECB1302383F3118804F58053D3F8A428A7
:1017E0001368527903EB8203DB689B695D6845B13E
:1017F00004216018FFF768FE294604F1140001F087
:1018000053FE2046FFF7B4FE002383F3118838BD52
:101810007047000001F02CB901234022002110B5CF
:10182000044600F8303BFFF703FB0023C4E9013313
:1018300010BD000010B53023044683F31188242224
:10184000416000210C30FFF7F3FA204601F032F935
:1018500002230020237080F3118810BD70B500EBC7
:101860008103054650690E461446DA6018B110220D
:101870000021FFF7DDFAA06918B110220021FFF75F
:10188000D7FA31462846BDE8704001F019BA000089
:1018900083682022002103F0011310B50446836001
:1018A0001030FFF7C5FA2046BDE8104001F092BAAB
:1018B000F0B4012500EB810447898D40E4683D4385
:1018C000A469458123600023A2606360F0BC01F03D
:1018D000AFBA0000F0B4012500EB810407898D4008
:1018E000E4683D436469058123600023A26063606E
:1018F000F0BC01F025BB000070B5022300250446B2
:10190000242203702946C0F888500C3040F8045C4B
:10191000FFF78EFA204684F8705001F065F963688D
:101920001B6823B129462046BDE87040184770BDAA
:101930000378052B10B504460AD080F88C300523B7
:10194000037043681B680BB1042198470023A36010
:1019500010BD00000178052906D190F88C2043685D
:1019600002701B6803B118477047000070B590F80B
:101970007030044613B1002380F8703004F1800207
:10198000204601F04BFA63689B68B3B994F8803045
:1019900013F0600535D00021204601F033FD002111
:1019A000204601F023FD63681B6813B10621204621
:1019B0009847062384F8703070BD20469847002869
:1019C000E4D0B4F88630A26F9A4288BFA36794F936
:1019D0008030A56F002B4FF0300380F20381002D83
:1019E00000F0F280092284F8702083F3118800212E
:1019F0002046D4E91D23FFF76DFF002383F31188F0
:101A0000DAE794F8812003F07F0343EA022340F2EF
:101A10000232934200F0C58021D8B3F5807F48D0D0
:101A20000DD8012B3FD0022B00F09380002BB2D1B8
:101A300004F1880262670222A267E367C1E7B3F597
:101A4000817F00F09B80B3F5407FA4D194F8823071
:101A5000012BA0D1B4F8883043F0020332E0B3F593
:101A6000006F4DD017D8B3F5A06F31D0A3F5C06388
:101A7000012B90D86368204694F882205E6894F821
:101A80008310B4F88430B047002884D0436863677B
:101A90000368A3671AE0B3F5106F36D040F6024230
:101AA00093427FF478AF5C4B63670223A367002304
:101AB000C3E794F88230012B7FF46DAFB4F888301F
:101AC00023F00203A4F88830C4E91D55E56778E7E0
:101AD000B4F88030B3F5A06F0ED194F88230204670
:101AE00084F88A3001F0DEF863681B6813B10121C5
:101AF00020469847032323700023C4E91D339CE745
:101B000004F18B0363670123C3E72378042B10D10F
:101B1000302383F311882046FFF7BAFE85F311883E
:101B20000321636884F88B5021701B680BB1204639
:101B3000984794F88230002BDED084F88B30042351
:101B4000237063681B68002BD6D00221204698477B
:101B5000D2E794F8843020461D0603F00F010AD521
:101B600001F04EF9012804D002287FF414AF2B4B6A
:101B70009AE72B4B98E701F035F9F3E794F88230B8
:101B8000002B7FF408AF94F8843013F00F01B3D02A
:101B90001A06204602D501F04DFCADE701F03EFCEF
:101BA000AAE794F88230002B7FF4F5AE94F88430E5
:101BB00013F00F01A0D01B06204602D501F022FC35
:101BC0009AE701F013FC97E7142284F8702083F35E
:101BD00011882B462A4629462046FFF769FE85F3E1
:101BE0001188E9E65DB1152284F8702083F311882D
:101BF00000212046D4E91D23FFF75AFEFDE60B2203
:101C000084F8702083F311882B462A462946204603
:101C1000FFF760FEE3E700BF804100087C41000859
:101C20007841000838B590F870300446002B3ED05B
:101C3000063BDAB20F2A34D80F2B32D8DFE803F094
:101C400037313108223231313131313131313737A9
:101C5000856FB0F886309D4214D2C3681B8AB5FBED
:101C6000F3F203FB12556DB9302383F311882B4631
:101C70002A462946FFF72EFE85F311880A2384F8A9
:101C800070300EE0142384F87030302383F3118811
:101C9000002320461A461946FFF70AFE002383F365
:101CA000118838BDC36F03B198470023E7E70021CF
:101CB000204601F0A7FB0021204601F097FB636856
:101CC0001B6813B10621204698470623D7E700007A
:101CD00010B590F870300446142B29D017D8062B75
:101CE00005D001D81BB110BD093B022BFBD8002148
:101CF000204601F087FB0021204601F077FB636856
:101D00001B6813B1062120469847062319E0152BBE
:101D1000E9D10B2380F87030302383F3118800233E
:101D20001A461946FFF7D6FD002383F31188DAE738
:101D3000C3689B695B68002BD5D1C36F03B198471B
:101D4000002384F87030CEE70023826803750369AE
:101D50001B6899689142FBD25A6803604260106028
:101D60005860704700238268037503691B6899688F
:101D70009142FBD85A680360426010605860704717
:101D800008B50846302383F311880B7D032B05D05B
:101D9000042B0DD02BB983F3118808BD8B69002269
:101DA0001A604FF0FF338361FFF7CEFF0023F2E7A5
:101DB000D1E9003213605A60F3E70000FFF7C4BFB7
:101DC000054BD96808751868026853601A600122CB
:101DD000D8600275FEF716BB502600200C4B30B5BC
:101DE000DD684B1C87B004460FD02B46094A684675
:101DF00000F04EF92046FFF7E3FF009B13B1684661
:101E000000F050F9A86907B030BDFFF7D9FFF9E736
:101E100050260020811D0008044B1A68DB6890687A
:101E20009B68984294BF00200120704750260020F4
:101E3000084B10B51C68D868226853601A600122EC
:101E4000DC602275FFF78EFF01462046BDE810409A
:101E5000FEF7D8BA5026002038B5074C01230025DC
:101E6000064907482370656001F0D2FC0223237005
:101E700085F3118838BD00BFA826002084410008E2
:101E80005026002000F044B9034A516853685B1A99
:101E90009842FBD8704700BF001000E08B6002231F
:101EA000086108468B8270478368A3F1840243F877
:101EB000142C026943F8442C426943F8402C094A27
:101EC00043F8242CC268A3F1200043F8182C022206
:101ED00003F80C2C002203F80B2C034A43F8102CB7
:101EE000704700BF1D0400085026002008B5FFF70A
:101EF000DBFFBDE80840FFF761BF0000024BDB6875
:101F000098610F20FFF75CBF50260020302383F339
:101F10001188FFF7F3BF000008B50146302383F3B3
:101F200011880820FFF75AFF002383F3118808BDAA
:101F3000064BDB6839B1426818605A601360436031
:101F40000420FFF74BBF4FF0FF30704750260020B2
:101F500003460068834205D002681A6053608161BD
:101F6000FFF72CBF7047000038B504460D462068C7
:101F7000844200D138BD036823605C608561FFF74F
:101F80001DFFF4E7036810B59C68A2420CD85C689A
:101F90000B608A604C60216059609968891A996069
:101FA0004FF0FF33836010BD121B1B68ECE700008D
:101FB0000A2938BF0A2170B504460D460A26601961
:101FC00001F01EFC01F006FC041BA54203D8751CA1
:101FD00004462E46F3E70A2E04D90120BDE87040DE
:101FE00001F056BC70BD0000F8B5144B14460A272A
:101FF0000D46D9610A2C826003F1100238BF0A2411
:1020000042601A69026050601861081901F0E8FB2B
:1020100001F0E0FB431B0646A34206D37C1C2819B3
:102020002746354601F0ECFBF2E70A2F04D90120E0
:10203000BDE8F84001F02CBCF8BD00BF50260020E0
:1020400070B50D46064601F0C5FB0F490B4653F827
:10205000102F9A4206D12A4601463046BDE870400C
:10206000FFF7C2BFCB69C41A93682C1928BF2C464E
:10207000A34202D92946FFF79BFF22463146034877
:10208000BDE87040FFF77EBF50260020602600208C
:10209000C0E90323002310B45DF8044B4361FFF74C
:1020A000CFBF000010B5194C236998420DD081684C
:1020B000D0E9003213605A609A680A449A6000239B
:1020C00003604FF0FF33A36110BD0268234643F85D
:1020D000102F53600022026022699A4203D1BDE8AA
:1020E000104001F087BB936881680B44936001F056
:1020F00071FB2269E1699268441AA242E4D9114451
:10210000BDE81040091AFFF753BF00BF502600205A
:102110002DE9F047DFF8B88008F110072B4ED8F80A
:10212000105001F057FBD8F81C40AA68011B8A42E6
:102130003DD81444D5E90032C8F81C4013605A60F9
:1021400000232B609946D8F81020B24201D101F04B
:1021500051FB89F31188D5E903312846984730238C
:1021600083F311886B69002BD9D001F033FB6A69C6
:10217000A0EB040982464A450DD2022001F088FBFB
:102180000022D8F81030B34208D151462846BDE8A5
:10219000F047FFF729BF2244121AF2E712EB0909B0
:1021A0002946384638BF4A46FFF7ECFEB6E7D8F86E
:1021B0001010B14208D01444C8F81C00211AA960BC
:1021C000BDE8F047FFF7F4BEBDE8F08760260020C9
:1021D0005026002000207047FEE7000070470000F6
:1021E0004FF0FF307047000002290CD0032904D0C3
:1021F0000129074818BF00207047032A05D8054861
:1022000000EBC2007047044870470020704700BFD1
:102210004042000834220020F441000870B59AB012
:1022200005460846144601A900F0BEF801A8FEF7CD
:10223000FDFD431C0022C6B25B001046C5E9003418
:1022400023700323023404F8013C01ABD1B2023401
:102250008E4201D81AB070BD13F8011B013204F888
:10226000010C04F8021CF1E708B5302383F3118850
:102270000348FFF74DFA002383F3118808BD00BF20
:102280004029002090F8803003F01F02012A07D176
:1022900090F881200B2A03D10023C0E91D3315E0FB
:1022A00003F06003202B08D1B0F884302BB990F8EC
:1022B0008120212A03D81F2A04D8FFF709BA222A2D
:1022C000EBD0FAE7034A426707228267C36701201F
:1022D000704700BF5422002010B50446052916D8C7
:1022E000DFE801F016150316161D302383F311885D
:1022F0000E4A0121FFF7B2FA20460D4A0221FFF7EC
:10230000ADFA0C48FFF7CEF9002383F3118810BD16
:10231000302383F311880748FFF79AF9F4E7302355
:1023200083F311880348FFF7B1F9EDE7CC410008CA
:10233000A84100084029002038B50B4D0B4C2A4617
:102340000B492046FFF76AFF05F1CA0204F10800B5
:102350000849FFF763FF05F5CA7204F1100006494A
:10236000BDE83840FFF75ABFE02600203C2200209D
:10237000024000080C4000081740000870B50446F1
:1023800008460D46FEF752FDC6B2204601340378DA
:102390000BB9184670BD32462946FEF733FD0028BA
:1023A000F3D10120F6E700002DE9F04105460C4687
:1023B000FEF73CFD2B49C6B22846FFF7DFFF08B108
:1023C0000436F6B228492846FFF7D8FF08B1103680
:1023D000F6B2632E07D8234FDFF88C802E7846B9EB
:1023E0002670BDE8F08129462046BDE8F04101F0A5
:1023F000E1BD252E31D1072239462846FEF702FDE0
:1024000078B91A4B07350B341A6844F80B2C5A6804
:1024100044F8072C1A899B7A24F8032C04F8013C11
:10242000DCE7082241462846FEF7ECFCA8B9A21CCE
:102430000F4B1048104E197802320909415C02F81E
:10244000041C13F8011B01F00F01B342415C02F8B8
:10245000031CF0D118340835C0E7013504F8016BCE
:10246000BCE700BF204000081740000828400008D3
:1024700000E8F11F344000080CE8F11FBFF34F8F54
:10248000044B1A695107FCD1D3F810215207F8D137
:10249000704700BF0020005208B50D4B1B78ABB948
:1024A000FFF7ECFF0B4BDA68D10704D50A4A5A60F4
:1024B00002F188325A60D3F80C21D20706D5064AB9
:1024C000C3F8042102F18832C3F8042108BD00BF1B
:1024D000E8410020002000522301674508B5114B58
:1024E0001B78F3B9104B1A69510703D5DA6842F02B
:1024F0004002DA60D3F81021520705D5D3F80C2139
:1025000042F04002C3F80C21FFF7B8FF064BDA682F
:1025100042F00102DA60D3F80C2142F00102C3F864
:102520000C2108BDE8410020002000520F289ABF6E
:1025300000F5806040040020704700004FF4003038
:1025400070470000102070470F2808B50ED8FFF71D
:10255000EDFF0368013309D100F5003304308342F5
:1025600001D1012008BD02680132F7D00020F9E74F
:102570000F2838B505463FD8FFF780FF1F4CFFF7FF
:102580008BFF4FF0FF3307286361C4F814311DD867
:102590002361FFF773FF030243F02403E360E36862
:1025A00043F08003E36023695A07FCD42846FFF711
:1025B00065FFFFF7BBFF4FF4003100F0FBF8284642
:1025C000FFF78CFFBDE83840FFF7BEBFC4F81031FD
:1025D000FFF754FFA0F108031B0243F02403C4F8E3
:1025E0000C31D4F80C3143F08003C4F80C31D4F82A
:1025F00010315B07FBD4D9E7002038BD0020005222
:102600002DE9F84F04460D46104644EA0203DB0666
:1026100002D00020BDE8F88F20F01F00DFF8C8A02E
:10262000DFF8C8B0FFF738FF05EB0008454503D1D8
:102630000120FFF753FFEDE720222146284601F055
:10264000A9FC10B920342035F0E723680133E0D12C
:10265000234604F12002043393423BD104F1784332
:102660001E4E1F48B3F5801F1E4B28BF9946A3F589
:1026700082732EBF5846D1461E46FFF7FFFE4FF02D
:10268000FF33A4EB050C05F11C010360336843F034
:10269000020333602B1FD9F8007017F00507FAD139
:1026A00053F8042F8B424CF80320F4D1BFF34F8F23
:1026B000FFF7E4FE4FF0FF33202229460360204657
:1026C000336823F00203336001F064FC0028B9D0C2
:1026D0003846AEE719680131BDD09AE70C210052A7
:1026E00014200052102100521020005214210052D8
:1026F00010B5084C237828B11BB9FFF7CDFE012394
:10270000237010BD002BFCD02070BDE81040FFF7F7
:10271000E5BE00BFE84100200244074BD2B210B52D
:10272000904200D110BD441C00B253F8200041F883
:10273000040BE0B2F4E700BF504000580E4B30B538
:102740001C6F240405D41C6F1C671C6F44F40044E8
:102750001C670A4C02442368D2B243F4807323609E
:10276000074B904200D130BD441C51F8045B00B2CD
:1027700043F82050E0B2F4E7004402580048025801
:102780005040005807B5012201A90020FFF7C4FFFF
:10279000019803B05DF804FB13B50446FFF7F2FFA0
:1027A000A04205D0012201A900200194FFF7C6FF35
:1027B00002B010BD0144BFF34F8F064B884204D3D3
:1027C000BFF34F8FBFF36F8F7047C3F85C022030A9
:1027D000F4E700BF00ED00E0034B1A681AB9034AA2
:1027E000D2F8D0241A607047EC4100200040025813
:1027F00008B5FFF7F1FF024B1868C0F3806008BD11
:10280000EC410020EFF30983054968334A6B22F05D
:1028100001024A6383F30988002383F31188704718
:1028200000EF00E0302080F3118862B60D4B0E4AB5
:10283000D96821F4E0610904090C0A430B49DA6004
:10284000D3F8FC2042F08072C3F8FC20084AC2F89A
:10285000B01F116841F0010111602022DA7783F87E
:102860002200704700ED00E00003FA0555CEACC52C
:10287000001000E0302310B583F311880E4B5B6825
:1028800013F4006314D0F1EE103AEFF309844FF023
:102890008073683CE361094BDB6B236684F3098832
:1028A000FFF7BAFA10B1064BA36110BD054BFBE769
:1028B00083F31188F9E700BF00ED00E000EF00E0CE
:1028C0002F0400083204000870B5BFF34F8FBFF328
:1028D0006F8F1A4A0021C2F85012BFF34F8FBFF317
:1028E0006F8F536943F400335361BFF34F8FBFF3CE
:1028F0006F8FC2F88410BFF34F8FD2F8803043F649
:10290000E074C3F3C900C3F34E335B0103EA04066A
:10291000014646EA81750139C2F86052F9D2203B7E
:1029200013F1200FF2D1BFF34F8F536943F480337B
:102930005361BFF34F8FBFF36F8F70BD00ED00E0A9
:10294000FEE70000214B2248224A70B5904237D35F
:10295000214BC11EDA1C121A22F003028B4238BF2F
:1029600000220021FEF764FA1C4A0023C2F88430DA
:10297000BFF34F8FD2F8803043F6E074C3F3C90041
:10298000C3F34E335B0103EA0406014646EA817550
:102990000139C2F86C52F9D2203B13F1200FF2D169
:1029A000BFF34F8FBFF36F8FBFF34F8FBFF36F8FA7
:1029B0000023C2F85032BFF34F8FBFF36F8F70BD4B
:1029C00053F8041B40F8041BC0E700BF2C44000868
:1029D000C0430020C0430020C043002000ED00E0C1
:1029E000074BD3F8D82022EA0002C3F8D820D3F846
:1029F000002122EA0002C3F80021D3F80031704719
:102A00000044025870B5D0E9244300224FF0FF354E
:102A10009E6804EB42135101D3F80009002805DA3F
:102A2000D3F8000940F08040C3F80009D3F8000B48
:102A3000002805DAD3F8000B40F08040C3F8000B03
:102A400001326318B242C3F80859C3F8085BE0D9F1
:102A50004FF00113C4F81C3870BD0000890141F02B
:102A60002001016103699B06FCD41220FFF70CBA18
:102A700010B50A4C2046FEF7CFFE094BC4F8903043
:102A8000084BC4F89430084C2046FEF7C5FE074BAF
:102A9000C4F89030064BC4F8943010BDA442002016
:102AA000000008406842000808420020000004407E
:102AB0005C42000870B503780546012B5CD1434B9E
:102AC000D0F89040984258D1414B0E216520D3F860
:102AD000D82042F00062C3F8D820D3F8002142F099
:102AE0000062C3F80021D3F80021D3F8802042F01F
:102AF0000062C3F88020D3F8802022F00062C3F87F
:102B00008020D3F88030FEF7B3FC324BE360324BC9
:102B1000C4F800380023D5F89060C4F8003EC02304
:102B200023604FF40413A3633369002BFCDA012301
:102B30000C203361FFF7A8F93369DB07FCD41220BE
:102B4000FFF7A2F93369002BFCDA00262846A660BD
:102B5000FFF758FF6B68C4F81068DB68C4F81468A6
:102B6000C4F81C6883BB1D4BA3614FF0FF33636146
:102B7000A36843F00103A36070BD194B9842C9D10B
:102B8000134B4FF080600E21D3F8D82042F0007232
:102B9000C3F8D820D3F8002142F00072C3F8002116
:102BA000D3F80021D3F8802042F00072C3F88020CF
:102BB000D3F8802022F00072C3F88020D3F8803050
:102BC000FFF70EFF4D209EE7064BCDE7A442002005
:102BD000004402584014004003002002003C30C072
:102BE00008420020083C30C0F8B5D0F890400546B7
:102BF00000214FF000662046FFF730FFD5F8941013
:102C000000234FF001128F684FF0FF30C4F83438C2
:102C1000C4F81C2804EB431201339F42C2F8006938
:102C2000C2F8006BC2F80809C2F8080BF2D20B68B0
:102C3000D5F89020C5F898306362102313611669A7
:102C400016F01006FBD11220FFF71EF9D4F8003859
:102C500023F4FE63C4F80038A36943F4402343F02F
:102C60001003A3610923C4F81038C4F814380B4BBF
:102C7000EB604FF0C043C4F8103B094BC4F8003B75
:102C8000C4F81069C4F80039D5F8983003F110027F
:102C900043F48013C5F89820A362F8BD744200087D
:102CA00040800010D0F8902090F88A10D2F80038B8
:102CB00023F4FE6343EA0113C2F8003870470000B2
:102CC0002DE9F84300EB81030C460FFA81F9D0F8A7
:102CD0009050D9680022804660010E6806F0030615
:102CE000731E022B05EB441398BFB604C3F8102BD8
:102CF00004F110024FF0010394BF06F18056334EE9
:102D000003FA02F38A6998BF06F50046002A39D013
:102D10004F8A04F1580237435201AF50D5F81C28AE
:102D200013430022C5F81C382B180127C3F81029BB
:102D3000A7404A69631E92B30A8A4033898B92087E
:102D4000012905EB830388BF4A43D8F8981050182F
:102D500041EA0241C8F89800284659602146FFF729
:102D60007DFE08EB8900C3681B8A43EA845348341C
:102D7000334364012B51D5F81C383B43C5F81C384C
:102D8000BDE8F88305EB4917D7F8002B22F4004281
:102D9000C7F8002BD5F81C2822EA0303C1E704F189
:102DA0003F030B4A2146284605EB83035A60FFF791
:102DB00055FE05EB4913D3F8002922F40042C3F86D
:102DC0000029D5F81C3823EA0703D7E70080001054
:102DD00000040002D0F894201268C0F89820FFF791
:102DE00011BE00005831D0F8903049015B5813F4FF
:102DF000004004D013F4001F14BF012002207047CC
:102E00004831D0F8903049015B5813F4004004D0A9
:102E100013F4001F14BF01200220704700EB810053
:102E2000C368196A0B6813604B68536070470000F1
:102E300000EB810330B5DD68AA691368D36019B966
:102E4000402B84BF402313606B8A1468D0F8902015
:102E50001C4402EB4110013C09B2B4FBF3F46343A0
:102E6000033323F0030343EAC44343F0C043C0F8F1
:102E7000103B2B6803F00303012B0ED1D2F8083866
:102E800002EB411013F4807FD0F8003B14BF43F0F5
:102E9000805343F00053C0F8003B02EB4112D2F8DC
:102EA000003B43F00443C2F8003B30BD2DE9F04144
:102EB000D0F8906005460C4606EB4113D3F8087B2A
:102EC0003A07C3F8087B08D5D6F814381B0704D591
:102ED00000EB8103DB685B689847FA071FD5D6F8DB
:102EE0001438DB071BD505EB8403D9688B69C4B99B
:102EF000488A5A68B2FBF0F600FB16228AB91868B5
:102F0000DA6890420DD2121AC3E90024302383F309
:102F1000118821462846FFF78BFF84F31188BDE80E
:102F2000F08101226B89A24023EA02036B81CB6806
:102F3000002BF4D021462846BDE8F0411847000098
:102F400000EB81034A0170B5DD68D0F890306C6900
:102F50002668E6604EBB1A444FF40020C2F8100900
:102F60002A6802F00302012A0AB20ED1D3F8080837
:102F700003EB421410F4807FD4F8000914BF40F032
:102F8000805040F00050C4F8000903EB4212D2F820
:102F9000000940F00440C2F800090122D3F83408C7
:102FA0008A400243C3F8342870BD19B9402E84BF4B
:102FB0004020206020681A442E8A8419013CB4FB0A
:102FC000F6F440EAC44040F00050C7E72DE9F8436A
:102FD000D0F8906005460C464F0106EB4113D3F83C
:102FE000088918F0010FC3F808891CD0D6F81038EA
:102FF000DB0718D500EB8103D3F80CC0DCF81430E4
:10300000D3F800E0DA68964530D2A2EB0E024FF01A
:1030100000091A60C3F80490302383F31188FFF786
:103020008FFF89F3118818F0800F1DD0D6F834383F
:103030000126A640334217D005EB84030134D5F8AE
:103040009050D3F80CC0E4B22F44DCF8142005EB08
:103050000434D2F800E05168714513D3D5F8343800
:1030600023EA0603C5F83438BDE8F8830122038952
:103070008A4023EA02030381DCF80830002BD2D017
:103080009847D0E7AEEB0103BCF81000834228BF9D
:103090000346D7F8180980B2B3EB800FE4D89068E4
:1030A000A0F1040959F8048FC4F80080A0EB0908C6
:1030B0009844B8F1040FF5D8184419449060516051
:1030C000C9E700002DE9F047D0F8905004466E693A
:1030D000AB691E4016F480586E6103D0BDE8F0471E
:1030E000FEF70ABC002E12DAD5F8003E9B0705D089
:1030F000D5F8003E23F00303C5F8003ED5F80438A8
:10310000204623F00103C5F80438FEF723FC3705F9
:1031100005D52046FFF776FC2046FEF709FCB004F3
:103120000CD5D5F8083813F0060FEB6823F470536C
:103130000CBF43F4105343F4A053EB6031071BD58D
:103140006368DB681BB9AB6923F00803AB612378C4
:10315000052B0CD1D5F8003E9A0705D0D5F8003ED6
:1031600023F00303C5F8003E2046FEF7F3FB636837
:10317000DB680BB120469847F30234D50021D4F820
:1031800090900F4609EB4713D3F8002902F4402230
:10319000B2F5802F1FD1D3F80029002A1BDAD3F80B
:1031A000002942F09042C3F80029D3F80029002AF0
:1031B000FBDBD4F89000FFF751FC01222389BA40D1
:1031C00023EA0203238104EB8703DB689B6813B1C6
:1031D0003946204698470137D4F89430FFB29B68AF
:1031E0009F423946CED9B70226D5D4F89090002711
:1031F0004FF0010A09EB4712D2F8003B03F44023D9
:10320000B3F5802F11D1D2F8003B002B0DDA638982
:103210000AFA07F223EA0203638104EB8703DB68FF
:10322000DB6813B13946204698470137D4F894300B
:10323000FFB29B689F42DDD9F00618D5D4F8900004
:10324000026AC2F30A1702F00F0302F4F012B2F599
:10325000802F00F08D80B2F5402F08D104EB83035E
:10326000002200F58050DB681B6A974273D130035F
:10327000D5F8185835D5E90303D500212046FFF7C6
:1032800015FEAA0303D501212046FFF70FFE6B03AD
:1032900003D502212046FFF709FE2F0303D50321A2
:1032A0002046FFF703FEE80203D504212046FFF77E
:1032B000FDFDA90203D505212046FFF7F7FD6A02AF
:1032C00003D506212046FFF7F1FD2B0203D5072188
:1032D0002046FFF7EBFDEF0103D508212046FFF75D
:1032E000E5FD70036BD5E90703D500212046FFF704
:1032F0006DFEAA0703D501212046FFF767FE6B0785
:1033000003D502212046FFF761FE2F0703D50321D5
:103310002046FFF75BFEEE0603D504212046FFF7AB
:1033200055FEA80603D505212046FFF74FFE690686
:1033300003D506212046FFF749FE2A0603D50721BB
:103340002046FFF743FEEB0539D520460821BDE8AE
:10335000F047FFF73BBE910701D1D0F80080072A64
:1033600002F101029CBF03F8018B4FEA18287CE7A9
:1033700004EB830300F58050DA68D2F818C0DCF85B
:103380000820DCE9001CA1EB0C0C00218F4208D1C5
:10339000DB689B699A683A449A605A683A445A6072
:1033A00065E711F0030F01D1D0F800808C4501F1E1
:1033B000010184BF02F8018B4FEA1828E6E7BDE857
:1033C000F087000008B50348FFF77CFEBDE8084021
:1033D000FFF750BAA442002008B50348FFF772FE79
:1033E000BDE80840FFF746BA08420020D0F8903008
:1033F00003EB4111D1F8003B43F40013C1F8003B4B
:1034000070470000D0F8903003EB4111D1F800393B
:1034100043F40013C1F8003970470000D0F8903031
:1034200003EB4111D1F8003B23F40013C1F8003B3A
:1034300070470000D0F8903003EB4111D1F800390B
:1034400023F40013C1F800397047000030B504338D
:10345000039C0172002104FB0325C160C0E90653EF
:10346000049B0363059BC0E90000C0E90422C0E996
:103470000842C0E90A11436330BD00000022416ADE
:10348000C260C0E90411C0E90A226FF00101FEF731
:103490006BBD0000D0E90432934201D1C2680AB981
:1034A000181D704700207047036919600021C26829
:1034B0000132C260C269134482699342036124BF2E
:1034C000436A0361FEF744BD38B504460D46E36820
:1034D0003BB162690020131D1268A3621344E362CA
:1034E00007E0237A33B929462046FEF721FD00285C
:1034F000EDDA38BD6FF00100FBE70000C368C26978
:10350000013BC3604369134482699342436124BF12
:10351000436A436100238362036B03B1184770471A
:1035200070B53023044683F31188866A3EB9FFF7ED
:10353000CBFF054618B186F31188284670BDA36AF3
:10354000E26A13F8015B9342A36202D32046FFF7BD
:10355000D5FF002383F31188EFE700002DE9F84F32
:1035600004460F4691469A464FF0300888F311887A
:103570000026B346A56A4DB951462046FFF7A4FF81
:1035800020B185F311883046BDE8F88FD4E90A15DB
:10359000A9EB06036D1A9D4228BF1D46402D1AD97E
:1035A0003B4601F1400251F8040B914243F8040BF1
:1035B000F9D1A36A403740364033E26AA3629A42A7
:1035C00002D82046FFF79AFF8BF311884E45DAD2D6
:1035D00088F31188CEE738462A46FDF709FCA36A2E
:1035E0002F442E442B44E8E710B5029C04330172AB
:1035F00003FB0421C460C0E906130023C0E90A33B9
:10360000039B0363049BC0E90000C0E90422C0E9F6
:103610000842436310BD0000026A6FF00101C260FE
:10362000426AC0E904220022C0E90A22FEF79CBCDB
:103630000346D0E90420824201D1DB681BB950F86F
:10364000043B0B60704700231846FAE7C36800216B
:10365000C2690133C3604369134482699342436181
:1036600024BF436A4361FEF773BC000038B50446CB
:103670000D46E3683BB1236900201A1DA262E2698E
:103680001344E36207E0237A33B929462046FEF764
:103690004FFC0028EDDA38BD6FF00100FBE70000B9
:1036A00003691960C268013AC260C2691344826941
:1036B0009342036124BF436A036100238362036B67
:1036C00003B118477047000070B530230D4604461B
:1036D000114683F31188866A2EB9FFF7C7FF10B130
:1036E00086F3118870BDA36A1D70A36AE26A013374
:1036F0009342A36204D3E16920460439FFF7D0FF67
:10370000002080F31188EDE72DE9F84F05460C46BF
:1037100091469A464FF0300888F311880027BB463F
:10372000AE6A4EB951462846FFF7A0FF20B186F396
:1037300011883846BDE8F88FD5E90A06A9EB0703DA
:10374000361A9E4228BF1E46402E1AD904F1400365
:1037500054F8042B9C4240F8042BF9D1AB6A403753
:103760004033EA6AAB629A4204D8E96928460439D0
:10377000FFF796FF8BF311884F45DAD288F3118853
:10378000CEE721463246FDF733FBAB6A344437447B
:103790003344E6E7D0E9042103468A4216D1C068E3
:1037A000A8B1986A98B10438801A10D0106001202E
:1037B000D9680139D960D9690A4499698A421A617C
:1037C00024BF5A6A1A6100229A627047002070472B
:1037D00000F022B9014B586A704700BF000C00404E
:1037E000034B002258631A610222DA60704700BF5F
:1037F000000C0040014B0022DA607047000C0040D2
:10380000014B5863704700BF000C0040FEE700000A
:1038100070B5002504461A4B86B085620E460163DA
:103820005860FEF7FFFF04F11003A560E562C4E9EC
:1038300004334FF0FF33C4E90044C4E90635FFF711
:10384000C9FF2B46024604F134012046C4E908238F
:1038500080230C4A2565FEF721FB01230A4AE0601C
:1038600000920375684672680192B268CDE902233E
:10387000064BCDE90435FEF739FB06B070BD00BF3D
:10388000A8260020454000084A4000080D380008DE
:10389000024AD36A0343D362704700BF5026002018
:1038A0004B6843608B688360CB68C3600B6943617E
:1038B0004B6903628B6943620B68036070470000C9
:1038C00008B53B4B40F2FF713A48D3F888200A43D1
:1038D000C3F88820D3F888206FF30A02C3F8882041
:1038E000D3F88820D3F8E0200A43C3F8E020D3F8C7
:1038F00008210A43C3F808212F4AD3F8083111469A
:10390000FFF7CEFF00F5806002F11C01FFF7C8FF52
:1039100000F5806002F13801FFF7C2FF00F580601A
:1039200002F15401FFF7BCFF00F5806002F1700165
:10393000FFF7B6FF00F5806002F18C01FFF7B0FFE2
:1039400000F5806002F1A801FFF7AAFF00F5806092
:1039500002F1C401FFF7A4FF00F5806002F1E0016D
:10396000FFF79EFF00F5806002F1FC01FFF798FF72
:1039700002F58C7100F58060FFF792FF00F018F9F6
:103980000E4BD3F8902242F00102C3F89022D3F8F4
:10399000942242F00102C3F894220522C3F8982031
:1039A0004FF06052C3F89C20054AC3F8A02008BD20
:1039B00000440258000002589842000800ED00E060
:1039C0001F00080308B500F0C7FAFEF745FA0F4BD1
:1039D000D3F8DC2042F04002C3F8DC20D3F8042105
:1039E00022F04002C3F80421D3F80431084B1A68CE
:1039F00042F008021A601A6842F004021A60FEF7E8
:103A0000EBFEBDE80840FEF797BC00BF004402583B
:103A10000018024870470000114BD3F8E82042F02C
:103A20000802C3F8E820D3F8102142F00802C3F8D6
:103A300010210C4AD3F81031D36B43F00803D36341
:103A4000C722094B9A624FF0FF32DA6200229A6174
:103A50005A63DA605A6001225A611A60704700BFE7
:103A6000004402580010005C000C0040094A08B5F0
:103A70001169D3680B40D9B29B076FEA010111614C
:103A800007D5302383F31188FEF7FCF9002383F375
:103A9000118808BD000C0040064BD3F8DC2002431F
:103AA000C3F8DC20D3F804211043C3F80401D3F891
:103AB000043170470044025808B53C4B4FF0FF31C9
:103AC000D3F8802062F00042C3F88020D3F8802031
:103AD00002F00042C3F88020D3F88020D3F884207D
:103AE000C3F88410D3F884200022C3F88420D3F8CC
:103AF0008400D86F40F0FF4040F4FF0040F4DF4006
:103B000040F07F00D867D86F20F0FF4020F4FF001E
:103B100020F4DF4020F07F00D867D86FD3F888000A
:103B20006FEA40506FEA5050C3F88800D3F888001D
:103B3000C0F30A00C3F88800D3F88800D3F89000D7
:103B4000C3F89010D3F89000C3F89020D3F89000F9
:103B5000D3F89400C3F89410D3F89400C3F89420D9
:103B6000D3F89400D3F89800C3F89810D3F89800CD
:103B7000C3F89820D3F89800D3F88C00C3F88C10C1
:103B8000D3F88C00C3F88C20D3F88C00D3F89C00B9
:103B9000C3F89C10D3F89C10C3F89C20D3F89C3039
:103BA000FDF78CFBBDE8084000F0AEB900440258B8
:103BB00008B50122534BC3F80821534BD3F8F42026
:103BC00042F00202C3F8F420D3F81C2142F00202B2
:103BD000C3F81C210222D3F81C314C4BDA605A681E
:103BE0009104FCD54A4A1A6001229A60494ADA6077
:103BF00000221A614FF440429A61444B9A69920440
:103C0000FCD51A6842F480721A603F4B1A6F12F4A6
:103C1000407F04D04FF480321A6700221A671A6876
:103C200042F001021A60384B1A685007FCD5002296
:103C30001A611A6912F03802FBD1012119604FF0A4
:103C4000804159605A67344ADA62344A1A611A6804
:103C500042F480321A602C4B1A689103FCD51A6822
:103C600042F480521A601A689204FCD52C4A2D49FD
:103C70009A6200225A63196301F57C01DA6301F547
:103C80000E7199635A64284A1A64284ADA621A68DB
:103C900042F0A8521A601C4B1A6802F02852B2F186
:103CA000285FF9D148229A614FF48862DA61402294
:103CB0001A621F4ADA641F4A1A651F4A5A651F4A68
:103CC0009A6532231E4A1360136803F00F03022B18
:103CD000FAD10D4A136943F003031361136903F02A
:103CE0003803182BFAD14FF00050FFF7D5FE4FF0F4
:103CF0008040FFF7D1FE4FF00040BDE80840FFF7DD
:103D0000CBBE00BF0080005100440258004802585A
:103D100000C000F0020000010000FF0100889008D0
:103D2000225050003F0209012F0E04079D0BBF01D6
:103D300020000020000001100910E0000001011027
:103D4000002000524FF0B04208B5D2F8883003F09E
:103D50000103C2F8883023B1044A13680BB15068DC
:103D60009847BDE80840FEF785BD00BF40430020EE
:103D70004FF0B04208B5D2F8883003F00203C2F821
:103D8000883023B1044A93680BB1D0689847BDE8E6
:103D90000840FEF76FBD00BF404300204FF0B04227
:103DA00008B5D2F8883003F00403C2F8883023B194
:103DB000044A13690BB150699847BDE80840FEF703
:103DC00059BD00BF404300204FF0B04208B5D2F8C3
:103DD000883003F00803C2F8883023B1044A93699D
:103DE0000BB1D0699847BDE80840FEF743BD00BF5E
:103DF000404300204FF0B04208B5D2F8883003F0BD
:103E00001003C2F8883023B1044A136A0BB1506A18
:103E10009847BDE80840FEF72DBD00BF4043002095
:103E20004FF0B04310B5D3F8884004F47872C3F86B
:103E30008820A30604D5124A936A0BB1D06A98472A
:103E4000600604D50E4A136B0BB1506B98472106E0
:103E500004D50B4A936B0BB1D06B9847E20504D5A0
:103E6000074A136C0BB1506C9847A30504D5044A5C
:103E7000936C0BB1D06C9847BDE81040FEF7FABCCC
:103E8000404300204FF0B04310B5D3F8884004F40D
:103E90007C42C3F88820620504D5164A136D0BB125
:103EA000506D9847230504D5124A936D0BB1D06D20
:103EB0009847E00404D50F4A136E0BB1506E984733
:103EC000A10404D50B4A936E0BB1D06E98476204DF
:103ED00004D5084A136F0BB1506F9847230404D5DB
:103EE000044A936F0BB1D06F9847BDE81040FEF7BE
:103EF000C1BC00BF4043002008B5FFF7B7FDBDE8D7
:103F00000840FEF7B7BC0000062108B50846FDF7DB
:103F1000AFFA06210720FDF7ABFA06210820FDF7CE
:103F2000A7FA06210920FDF7A3FA06210A20FDF7CA
:103F30009FFA06211720FDF79BFA06212820FDF79E
:103F400097FA09217A20FDF793FA07213220BDE87C
:103F50000840FDF78DBA000008B5FFF7ADFD00F091
:103F60000BF8FDF757FCFDF729FBFFF753FDBDE804
:103F70000840FFF72DBC00000023054A1946013315
:103F8000102BC2E9001102F10802F8D1704700BFFE
:103F90004043002010B501390244904201D1002075
:103FA00005E0037811F8014FA34201D0181B10BDA2
:103FB0000130F2E7034611F8012B03F8012B002A28
:103FC000F9D1704701105A00031059000120580020
:103FD0000320560053544D333248373F3F3F005380
:103FE000544D3332483733782F3732780053544D9D
:103FF0003332483734332F3735332F37353000637A
:1040000030004172647550696C6F740025424F41F5
:104010005244252D424C002553455249414C250020
:1040200025424F415244250058592D7375622D7415
:1040300065737400303132333435363738394142A4
:1040400043444546006D61696E0069646C6500001B
:1040500010000240080002400008024000000B006F
:1040600028000240080002400408024006010C003B
:1040700040000240080002400808024010020D0003
:1040800058000240080002400C08024016030E00CF
:10409000700002400C0002401008024000040F00B3
:1040A000880002400C00024014080240060510007F
:1040B000A00002400C000240180802401006110047
:1040C000B80002400C0002401C08024016072F00F6
:1040D0001004024008040240200802400008380092
:1040E000280402400804024024080240060939005E
:1040F000400402400804024028080240100A3A0026
:1041000058040240080402402C080240160B3B00F1
:10411000700402400C04024030080240000C3C00D5
:10412000880402400C04024034080240060D44009A
:10413000A00402400C04024038080240100E450062
:10414000B80402400C0402403C080240160F46002E
:104150000000000039150008251500086115000849
:104160004D150008591500084515000831150008BF
:104170001D1500086D15000801000000000000007A
:1041800000000000FF3F00084024002050260020CF
:10419000A442002001010200D9220008E921000800
:1041A00085220008692200080300000000000000CA
:1041B000111800080000000010000000B0260020C8
:1041C00000000000010000000000000002000000EC
:1041D000000000005D170008C917000840004000FB
:1041E000D0260020C02600200200000000000000B1
:1041F0000403090443000000FC41000809024300D5
:10420000020100C03209040000010202010005247D
:104210000010010524010001042402020524060007
:1042200001070582030800FF09040100020A0000DB
:104230000007050102400000070581024000000060
:104240001200000048420008120110010200004064
:1042500009124157000201020301000000010000A1
:104260000010000008000000800000004001000075
:1042700008000000000000006D190008251C00085F
:10428000D11C000840004000F8410020F841002007
:1042900001000000F04100200001802A0000000021
:1042A000AAAAAAAA00010024FFFF00000000000043
:1042B00000A00A000000000000000000AAAAAAAAAC
:1042C00000000000FFFF00000000000000000000F0
:1042D0000000000000000000AAAAAAAA0000000036
:1042E000FFFF0000000000000000000000000000D0
:1042F00000000000AAAAAAAA00000000FFFF000018
:1043000000000000000000000000000000000000AD
:10431000AAAAAAAA00000000FFFF000000000000F7
:10432000000000000000000000000000AAAAAAAAE5
:1043300000000000FFFF000000000000000000007F
:104340000000000000000000AAAAAAAA00000000C5
:10435000FFFF00000000000000000000000000005F
:1043600000000000AAAAAAAA00000000FFFF0000A7
:10437000000000000000000000000000000000003D
:10438000AAAAAAAA00000000FFFF00000000000087
:10439000000000000000000000000000AAAAAAAA75
:1043A00000000000FFFF000000000000000000000F
:1043B0000000000000000000AAAAAAAA0000000055
:1043C000FFFF0000000000000000000000000000EF
:1043D000C80000000000000000001A0000000000FB
:1043E000FF00000000000000D43F0008830400002C
:1043F000DF3F000850040000ED3F00080096000079
:104400000000080004000000F04100080000000067
:10441000000000000000000000000000000000009C
:0C442000000000000096000000000800F2
:00000001FF
